:1003B000EF1FAC0670011E4C600B007D027CC7DC99
:0503C000FEDDFC80EBF6
:0103C5002215
:1001B300E4F50820B1137F14FE1203B030B1FD7FC4
:1001C300147E001203B075080120B0147F147E0062
:1001D3001203B030B0FD7F147E001203B075080225
:1001E30020B2147F147E001203B030B2FD7F147E60
:1001F300001203B075080320B3147F147E001203AA
:10020300B030B3FD7F147E001203B0750804AF084D
:0102130022C8
:0603F000C2A58F80D2A718
:0903F600007F027EC7DEFEDFFC81
:0103FF0022DB
:0A040F00C2A61203F0C2A70203F612
:10035E00CFCDCFCECCCE12004D7C007D0A12004DFB
:04036E00ED2430FF4B
:0A037200D2A61203F0C2A70203F6A0
:1003C600AE07BE0104ED148006BE0209ED243F44CB
:0603D60080FF12040F225B
:1003DC007F3812040F7F0C12040F7F0612040F7F5C
:0403EC000102040FF7
:0A041900AC031203C6AF0402037225
:06033B008B088A09890A03
:100341001203C6E4FDAB08AA09A90A8D82758300D0
:0C03510012000EFF60061203720D80E91E
:01035D00227D
:0C0308007F0AEA24FFFDE434FFFC7E00C5
:080314008E0D8F0E8C0F8D1071
:10031C007F017E00E4FBEBC39510E50F6480F8745D
:0E032C008098500AAC0DAD0E12003B0B80E81D
:01033A0022A0
:04037C008A0A8B0B53
:100380001203C6AA0CEAD39400400D120308AC0A6B
:08039000AD0B12035E1A80EDB3
:010398002242
:10025D001203C6C3EA64809480400B7F2B12037295
:10026D008A168B17800E7F2D120372C3E49BF51730
:10027D00E49AF516AA15EAD39400400D120308ACC2
:09028D0016AD1712035E1A80ED94
:010296002245
:040297008A208B210D
:10029B001203C6AA22EAD3940040297F1012030A44
:1002AB00AC20AD21CFCDCFCECCCE12004DEF540F25
:1002BB00FEC3940AEE5004243080022437FF12034D
:0402CB00721A80D152
:0102CF00220C
:0402D0008A258B26CA
:1002D4001203C6AA27EAD394004028EA24FFFDE4C7
:1002E40034FFFC7F027E00120314AC25AD26CFCD73
:1002F400CFCECCCE12004DEF54012430FF12037246
:030304001A80D28A
:0103070022D3
:100399005389F0438901758A66758CFCC28DD28CAC
:0703A900D2A9D2AFC2B922B4
:0F040000436C6F636B3A003A20203A00454E0080
:09042300011A00011C00011B007C
:10012E001203DC1203997BFF7A0479007D017F01B3
:10013E0012033B7BFF7A0479077D037F0212033B98
:10014E007BFF7A04790C7D0F7F0112033BE51BFBCD
:10015E007A00750C027D017F0212037CE51CFB7A8E
:10016E0000750C027D047F0212037CE51AFB7A00F7
:10017E00750C027D077F0212037C1201B38F1DE501
:10018E001D24FE60170470C5B28CA28CE4FA33FBFA
:10019E00750C017D107F0212037C80B1E4F51AF517
:0501AE001CF51B80A8F8
:03000B00020214DA
:04021400C0E0C0D0B6
:10021800758A66758CFC0519E51970020518C39472
:10022800E8E51894034029751800751900051AE5C2
:100238001A943C4005751A00051CE51CC3943C4003
:1002480005751C00051BE51BC394184003751B00AE
:05025800D0D0D0E0321F
:030000000200A259
:0C00A200787FE4F6D8FD7581270200E9A4
:10000E00BB010CE58229F582E5833AF583E02250A7
:10001E0006E92582F8E622BBFE06E92582F8E222F1
:0D002E00E58229F582E5833AF583E493220B
:10003B00EF8DF0A4A8F0CF8CF0A428CE8DF0A42ED9
:02004B00FE2293
:10004D00BC000BBE0029EF8DF084FFADF022E4CC97
:10005D00F875F008EF2FFFEE33FEEC33FCEE9DEC60
:10006D00984005FCEE9DFE0FD5F0E9E4CEFD22EDA6
:10007D00F8F5F0EE8420D21CFEADF075F008EF2FF0
:10008D00FFED33FD4007985006D5F0F222C398FDE1
:05009D000FD5F0EA227E
:1000AE0002012EE493A3F8E493A34003F68001F239
:1000BE0008DFF48029E493A3F85407240CC8C33353
:1000CE00C4540F4420C8834004F456800146F6DF22
:1000DE00E4800B0102040810204080900423E47E8B
:1000EE00019360BCA3FF543F30E509541FFEE49317
:1000FE00A360010ECF54C025E060A840B8E493A3DE
:10010E00FAE493A3F8E493A3C8C582C8CAC583CA08
:10011E00F0A3C8C582C8CAC583CADFE9DEE780BEC0
:01042C0000CF
:00000001FF
