:10079100EF1FAC0670011E4C600B007D027CC7DCB4
:0507A100FEDDFC80EB11
:0107A6002230
:0907E5000712180704173B370442
:05000300C2B6C2B522E7
:02055000AD07F5
:10055200E4F9430501D2B5FB7E007401A8030880CB
:1005620005C333CE33CED8F9FFEDF582EF558224A1
:10057200FF92B4C2B6D2B60BBB08DDE4FBD2B6C260
:10058200B630B40DA8037401088002C333D8FC420C
:0B059200010BBB08E8C2B5C2B4AF010A
:01059D00223B
:0204B000A9079A
:1004B200D2B5E4FB7E007401A803088005C333CEE5
:1004C20033CED8F9FFE9F582EF558224FF92B4D2F8
:1004D200B6C2B60BBB08DDE4FB7E007401A80308BC
:1004E2008005C333CE33CED8F9FFEDF582EF5582C6
:0E04F20024FF92B4D2B6C2B60BBB08DDC2B571
:0105000022D8
:0506EE001205507D0122
:1006F300ED4C6010EFC4540F75F00AA4FDEF540FD6
:100703002DFE8012EF75F00A84C454F0FEEF75F0ED
:080713000A84EE25F0FEAF069A
:01071B0022BB
:10038D00E4FD7F8E1204B0E4FCAF121206F3AD074C
:10039D007F8C1204B0E4FDAF131206F3AD077F8816
:1003AD001204B0E4FDAF141206F3AD077F8A1204F8
:1003BD00B0E4FDAF151206F3AD077F841204B0E46F
:1003CD00FDAF161206F3AD077F821204B0E4FDAF48
:1003DD00171206F3AD077F801204B0E4FDAF1812BB
:1003ED0006F3AD077F861204B07D807F8E0204B0C8
:1005D8007F8C1205507D017C001206F38F127F88F4
:1005E8001206EE8F137F8A1206EE8F147F8412068E
:1005F800EE8F157F821206EE8F167F801206EE8F21
:09060800177F861206EE8F1822FE
:1003FD00E4F50820B1137F14FE12079130B1FD7F93
:10040D00147E0012079175080120B0147F147E0030
:10041D0012079130B0FD7F147E001207917508020E
:10042D0020B2147F147E0012079130B2FD7F147E2E
:10043D000012079175080320B3147F147E00120774
:10044D009130B3FD7F147E00120791750804AF083B
:01045D00227C
:0607F500C2A58F80D2A70F
:0907FB00007F027EC7DEFEDFFC78
:0108040022D1
:0A080500C2A61207F5C2A70207FB06
:10073F00CFCDCFCECCCE1202AC7C007D0A1202AC54
:04074F00ED2430FF66
:0A075300D2A61207F5C2A70207FBA9
:1007A700AE07BE0104ED148006BE0209ED243F44E6
:0607B70080FF120805227C
:1007BD007F381208057F0C1208057F061208057F89
:0407CD000102080518
:0A080F00AC031207A7AF0402075361
:06071C008B098A0A890B1B
:100722001207A7E4FDAB09AA0AA90B8D8275830003
:0C07320012026DFF60061207530D80E9F3
:01073E002298
:0C06BB007F0AEA24FFFDE434FFFC7E000F
:0806C7008E0E8F0F8C108D11B7
:1006CF007F017E00E4FBEBC39511E5106480F874A5
:0E06DF008098500AAC0EAD0F12029A0B80E804
:0106ED0022EA
:04075D008A0B8B0C6C
:100761001207A7AA0DEAD39400400D1206BBAC0BE9
:08077100AD0C12073F1A80EDE8
:01077900225D
:10059E001207A7C3EA64809480400B7F2B12075387
:1005AE008A1E8B1F800E7F2D120753C3E49BF51FEF
:1005BE00E49AF51EAA1DEAD39400400D1206BBACB8
:0905CE001EAD1F12073F1A80ED5B
:0105D7002201
:040611008A298B2A7D
:100615001207A7AA2BEAD3940040297F101206BD22
:10062500AC29AD2ACFCDCFCECCCE1202ACEF540F34
:10063500FEC3940AEE5004243080022437FF1207CB
:04064500531A80D1F3
:01064900228E
:040683008A2E8B2F01
:100687001207A7AA30EAD394004028EA24FFFDE422
:1006970034FFFC7F027E001206C7AC2EAD2FCFCDF4
:1006A700CFCECCCE1202ACEF54012430FF12075349
:0306B7001A80D2D4
:0106BA00221D
:1007D10020200020202D20202D0020203A20203A0A
:0407E10020202D00A7
:0607EE00012300012600BA
:10045E001205D8E4F508E50875F003A404FD74123E
:10046E002508F8E6FB3395E0FA750D027F011207B9
:10047E005D0508E508C3940340DCE4F508E508755E
:10048E00F003A404FD74152508F8E6FB3395E0FA95
:10049E00750D027F0212075D0508E508C39404403E
:0104AE00DC71
:0104AF00222A
:10000E00E524B4020B0526E52675F0068485F02658
:10001E00E524640360030200E374122526F806D378
:10002E00E512648094E34003E4F512D3E513648093
:10003E00948C4003751301E51364016023E513648A
:10004E0003601DE51364056017E51364076011E591
:10005E00136408600BE513640A6005E513B40C0B1A
:10006E00D3E5146480949F40488043E51364046094
:10007E0011E5136406600BE51364096005E513B41E
:10008E000B0BD3E5146480949E40268021E51275F7
:10009E00F00412024BAFF0EF700BD3E514648094B2
:1000AE009D400E8009D3E5146480949C4003751422
:1000BE0001D3E515648094974003E4F515D3E51656
:1000CE00648094BB4003E4F516D3E517648094BBBB
:1000DE004003E4F517E524640460030201B17412D1
:1000EE002526F816C3E512648094805003751263BA
:1000FE00C3E51364809481500375130CE5136401FA
:10010E006023E5136403601DE51364056017E513B2
:10011E0064076011E5136408600BE513640A60055B
:10012E00E513B40C0EC3E51464809481505175141C
:10013E001F804CE51364046011E5136406600BE543
:10014E001364096005E513B40B0EC3E514648094C3
:10015E0081502C75141E8027E51275F00412024B87
:10016E00AFF0EF700EC3E5146480948150117514D6
:10017E001D800CC3E51464809481500375141CC358
:10018E00E515648094805003751517C3E5166480D9
:10019E009480500375163BC3E5176480948050031A
:1001AE0075173BE4F508E526B50819E5256015E554
:1001BE000875F003A404FD7BFF7A0779D17F011245
:1001CE00071C801BE50875F003A404FD74122508B6
:1001DE00F8E6FB3395E0FA750D027F0112075D0517
:1001EE0008E508C3940340BEE4F508E5082403FFC0
:1001FE00E433FE7C00EFB5261DECB50619E525604F
:10020E0015E50875F003A404FD7BFF7A0779D17F0D
:10021E000212071C801BE50875F003A404FD74157B
:10022E002508F8E6FB3395E0FA750D027F021207FA
:0D023E005D0508E508C3940440B102038D7E
:100501001207BD12000312077A12038D7BFF7A07CF
:1005110079D4E4FD7F0112071C7BFF7A0779DBE4C4
:10052100FD7F0212071C1203FD8F24E5246012B423
:10053100010FE52370057523018006E4F5231203FD
:0F0541008DE523700512045E80DC12000E80D75A
:03000B0002064AA0
:09064A00C0E0C0D075D000C0076B
:10065300758A66758CFC0521E52170020520C3941B
:10066300E8E52094034012752000752100E525700C
:09067300047F0180027F008F2545
:07067C00D007D0D0D0E0321E
:10077A005389F0438901758A66758CFCC28DD28CC7
:07078A00D2A9D2AFC2B922CF
:03000000020301F7
:0C030100787FE4F6D8FD758130020348D7
:10024B00C2D530F707B2D563F0FF05F030E70CB23B
:10025B00D5F4048463F0FF05F080018430D502F4FB
:02026B0004226B
:10026D00BB010CE58229F582E5833AF583E0225046
:10027D0006E92582F8E622BBFE06E92582F8E22290
:0D028D00E58229F582E5833AF583E49322AA
:10029A00EF8DF0A4A8F0CF8CF0A428CE8DF0A42E78
:0202AA00FE2232
:1002AC00BC000BBE0029EF8DF084FFADF022E4CC36
:1002BC00F875F008EF2FFFEE33FEEC33FCEE9DECFF
:1002CC00984005FCEE9DFE0FD5F0E9E4CEFD22ED45
:1002DC00F8F5F0EE8420D21CFEADF075F008EF2F8F
:1002EC00FFED33FD4007985006D5F0F222C398FD80
:0502FC000FD5F0EA221D
:10030D00020501E493A3F8E493A34003F68001F200
:10031D0008DFF48029E493A3F85407240CC8C333F1
:10032D00C4540F4420C8834004F456800146F6DFC0
:10033D00E4800B01020408102040809007E5E47E64
:10034D00019360BCA3FF543F30E509541FFEE493B5
:10035D00A360010ECF54C025E060A840B8E493A37C
:10036D00FAE493A3F8E493A3C8C582C8CAC583CAA7
:10037D00F0A3C8C582C8CAC583CADFE9DEE780BE5F
:0107F4000004
:00000001FF
