:1001930012045912049B1201231202FDE4F508E52F
:1001A3000875F003A404FD74192508F8E6FB7A002A
:1001B300750D027F011204100508E508C39403407E
:1001C300DEE4F508E508C3940450CEE50875F003B2
:1001D300A404FD741C2508F8E6FB7A00750D027F64
:0801E30002120410050880DC83
:10042D00EF1FAC0670011E4C600B007D027CC7DC1B
:05043D00FEDDFC80EB78
:010442002297
:06046D00C2A58F80D2A79A
:09047300007F027EC7DEFEDFFC03
:01047C00225D
:0A047D00C2A612046DC2A7020473A8
:1003F200CFCDCFCECCCE1200427C007D0A1200427D
:04040200ED2430FFB6
:0A040600D2A612046DC2A70204730F
:10044300AE07BE0104ED148006BE0209ED243F444D
:0604530080FF12047D226F
:100459007F3812047D7F0C12047D7F0612047D7F94
:040469000102047D0B
:0A048700AC03120443AF04020406A4
:0603CF008B2A8A2B892C09
:1003D500120443E4FDAB2AAA2BA92C8D8275830058
:0C03E500120003FF60061204060D80E900
:0103F10022E9
:0C036E007F0AEA24FFFDE434FFFC7E005F
:08037A008E0E8F0F8C108D1107
:100382007F017E00E4FBEBC39511E5106480F874F5
:0E0392008098500AAC0EAD0F1200300B80E8C0
:0103A000223A
:040410008A0B8B0CBC
:10041400120443AA0DEAD39400400D12036EAC0BF0
:08042400AD0C1203F21A80ED89
:01042C0022AD
:10028A00120443C3EA64809480400B7F2B12040655
:10029A008A178B18800E7F2D120406C3E49BF5186B
:1002AA00E49AF517AA16EAD39400400D12036EAC2D
:0902BA0017AD181203F21A80EDD1
:0102C3002218
:0402C4008A228B23DC
:1002C800120443AA24EAD3940040297F1012037031
:1002D800AC22AD23CFCDCFCECCCE120042EF540FFF
:1002E800FEC3940AEE5004243080022437FF12041F
:0402F800061A80D191
:0102FC0022DF
:040336008A278B285F
:10033A00120443AA29EAD394004028EA24FFFDE4E0
:10034A0034FFFC7F027E0012037AAC27AD28CFCDA2
:10035A00CFCECCCE120042EF54012430FF12040655
:03036A001A80D224
:01036D00226D
:090491000719180704173B370492
:05049B00C2B6C2B5224B
:02023C00AD070C
:10023E00E4F9430501D2B5FB7E007401A8030880E2
:10024E0005C333CE33CED8F9FFEDF582EF558224B8
:10025E00FF92B4C2B6D2B60BBB08DDE4FBD2B6C277
:10026E00B630B40DA8037401088002C333D8FC4223
:0B027E00010BBB08E8C2B5C2B4AF0121
:010289002252
:0201EB00A90762
:1001ED00D2B5E4FB7E007401A803088005C333CEAD
:1001FD0033CED8F9FFE9F582EF558224FF92B4D2C0
:10020D00B6C2B60BBB08DDE4FB7E007401A8030883
:10021D008005C333CE33CED8F9FFEDF582EF55828D
:0E022D0024FF92B4D2B6C2B60BBB08DDC2B538
:01023B0022A0
:0503A10012023C7D0189
:1003A600ED4C6010EFC4540F75F00AA4FDEF540F26
:1003B6002DFE8012EF75F00A84C454F0FEEF75F03E
:0803C6000A84EE25F0FEAF06EB
:0103CE00220C
:10012300E4FD7F8E1201EBE4FCAF191203A6AD07C9
:100133007F8C1201EBE4FDAF1A1203A6AD077F8893
:100143001201EBE4FDAF1B1203A6AD077F8A120178
:10015300EBE4FDAF1C1203A6AD077F841201EBE4B1
:10016300FDAF1D1203A6AD077F821201EBE4FDAFC5
:100173001E1203A6AD077F801201EBE4FDAF1F1231
:1001830003A6AD077F861201EB7D807F8E0201EB14
:1002FD007F8C12023C7D017C001203A68F197F8832
:10030D001203A18F1A7F8A1203A18F1B7F84120300
:10031D00A18F1C7F821203A18F1D7F801203A18FDD
:09032D001E7F861203A18F1F221E
:0300000002009764
:0C009700787FE4F6D8FD75812D0200DEB4
:10000300BB010CE58229F582E5833AF583E02250B2
:1000130006E92582F8E622BBFE06E92582F8E222FC
:0D002300E58229F582E5833AF583E4932216
:10003000EF8DF0A4A8F0CF8CF0A428CE8DF0A42EE4
:02004000FE229E
:10004200BC000BBE0029EF8DF084FFADF022E4CCA2
:10005200F875F008EF2FFFEE33FEEC33FCEE9DEC6B
:10006200984005FCEE9DFE0FD5F0E9E4CEFD22EDB1
:10007200F8F5F0EE8420D21CFEADF075F008EF2FFB
:10008200FFED33FD4007985006D5F0F222C398FDEC
:050092000FD5F0EA2289
:1000A300020193E493A3F8E493A34003F68001F2DF
:1000B30008DFF48029E493A3F85407240CC8C3335E
:1000C300C4540F4420C8834004F456800146F6DF2D
:1000D300E4800B0102040810204080900491E47E28
:1000E300019360BCA3FF543F30E509541FFEE49322
:1000F300A360010ECF54C025E060A840B8E493A3E9
:10010300FAE493A3F8E493A3C8C582C8CAC583CA13
:10011300F0A3C8C582C8CAC583CADFE9DEE780BECB
:01049A000061
:00000001FF
