:0A01130008083C42A98585A9423C7A
:1000DE0012011EE4F51074082510F8E6FD7C00AF41
:0F00EE00101200BC0510E510C3940840E980E42F
:1000FD00EF1FAC0670011E4C600B007D027CC7DC4F
:05010D00FEDDFC80EBAB
:0101120022CA
:05011E00C2B5C2B622CB
:02008F00AD07BB
:10009100E4FB7E007480A803088006CEA2E713CE9D
:1000A10013D8F8FFEDF582EF558224FF92B4D2B652
:0A00B100C2B60BBB08DCD2B5C2B525
:0100BB002222
:1000BC00AA07AF0512008FAF02A807748008800250
:1000CC00C313D8FCF4F5807F017E001200FD75800F
:0200DC00FF2201
:03000000020003F8
:0C000300787FE4F6D8FD75811002004AF9
:10000F000200DEE493A3F8E493A34003F68001F229
:10001F0008DFF48029E493A3F85407240CC8C333F2
:10002F00C4540F4420C8834004F456800146F6DFC1
:10003F00E4800B0102040810204080900113E47E3D
:10004F00019360BCA3FF543F30E509541FFEE493B6
:10005F00A360010ECF54C025E060A840B8E493A37D
:10006F00FAE493A3F8E493A3C8C582C8CAC583CAA8
:10007F00F0A3C8C582C8CAC583CADFE9DEE780BE60
:01011D0000E1
:00000001FF
