:10038300EF1FAC0670011E4C600B007D027CC7DCC6
:05039300FEDDFC80EB23
:010398002242
:0603D400C2A58F80D2A734
:0903DA00007F027EC7DEFEDFFC9D
:0103E30022F7
:0A03F000C2A61203D4C2A70203DA6A
:10034800CFCDCFCECCCE1201F27C007D0A1201F2C5
:04035800ED2430FF61
:0A035C00D2A61203D4C2A70203DAEE
:10039900AE07BE0104ED148006BE0209ED243F44F8
:0603A90080FF1203F022A8
:1003AF007F381203F07F0C1203F07F061203F07FE9
:0403BF00010203F044
:0A03FA00AC03120399AF0402035C88
:060325008B088A09890A19
:10032B00120399E4FDAB08AA09A90A8D8275830013
:0C033B001201B3FF600612035C0D80E9A4
:010347002293
:0C02F2007F0AEA24FFFDE434FFFC7E00DC
:0802FE008E0D8F0E8C0F8D1088
:100306007F017E00E4FBEBC39510E50F6480F87473
:0E0316008098500AAC0DAD0E1201E00B80E88D
:0103240022B6
:040366008A0A8B0B69
:10036A00120399AA0CEAD39400400D1202F2AC0AC5
:08037A00AD0B1203481A80EDDF
:010382002258
:10024700120399C3EA64809480400B7F2B12035CEE
:100257008A168B17800E7F2D12035CC3E49BF5175C
:10026700E49AF516AA15EAD39400400D1202F2ACEF
:0902770016AD171203481A80EDC0
:01028000225B
:040281008A1A8B1B2F
:10028500120399AA1CEAD3940040297F101202F4A4
:10029500AC1AAD1BCFCDCFCECCCE1201F2EF540FA1
:1002A500FEC3940AEE5004243080022437FF120363
:0402B5005C1A80D17E
:0102B9002222
:0402BA008A1F8B20EC
:1002BE00120399AA21EAD394004028EA24FFFDE410
:1002CE0034FFFC7F027E001202FEAC1FAD20CFCDAC
:1002DE00CFCECCCE1201F2EF54012430FF12035CCC
:0302EE001A80D2A1
:0102F10022EA
:1003C30070617373776F7264004F4B210045525213
:0103D3000029
:1000F1001203AF7BFF7A0379C37D017F01120325D0
:100101001200038F26E526D3940A5048E526940071
:100111004042E5239404E52294005038AE24AF25F3
:100121007C007D0A1201E08E248F25E52675F00AF8
:100131008485F026E5262525F525E43524F5247565
:100141000C04AB25FA7D017F021203660523E5232A
:1001510070020522E526640B7036E525B4D20DE563
:1001610024B404087BFF7A0379CC80067BFF7A03F1
:1001710079D07D0E7F01120325E4F522F523F524C4
:10018100F525750C04AB25AA247D017F02120366B7
:10019100E526640C6003020101F522F523F524F53F
:1001A10025750C04AB25AA247D017F02120366028A
:0201B10001014A
:10000300E4F5087590F7E59064F7602C7F0A7E00AD
:10001300120383AF90EF2449601124E0601224F0AF
:10002300601324707012750801800D75080580082F
:10003300750809800375080DE590B4F7FB7590FB0F
:10004300E59064FB602C7F0A7E00120383AF90EF80
:100053002445601124E0601224F0601324707012B0
:10006300750802800D750806800875080A800375F7
:10007300080EE590B4FBFB7590FDE59064FD602CE4
:100083007F0A7E00120383AF90EF2443601124E0C4
:10009300601224F0601324707012750803800D75CC
:1000A3000807800875080B800375080FE590B4FDF9
:1000B300FB7590FEE59064FE602C7F0A7E001203C0
:1000C30083AF90EF2442601124E0601224F06013A8
:1000D30024707012750804800D750808800875086F
:0D00E3000C8003750810E590B4FEFBAF081B
:0100F00022ED
:030000000203E414
:0C03E400787FE4F6D8FD7581260200F158
:1001B300BB010CE58229F582E5833AF583E0225001
:1001C30006E92582F8E622BBFE06E92582F8E2224B
:0D01D300E58229F582E5833AF583E4932265
:1001E000EF8DF0A4A8F0CF8CF0A428CE8DF0A42E33
:0201F000FE22ED
:1001F200BC000BBE0029EF8DF084FFADF022E4CCF1
:10020200F875F008EF2FFFEE33FEEC33FCEE9DECB9
:10021200984005FCEE9DFE0FD5F0E9E4CEFD22EDFF
:10022200F8F5F0EE8420D21CFEADF075F008EF2F49
:10023200FFED33FD4007985006D5F0F222C398FD3A
:050242000FD5F0EA22D7
:00000001FF
