:06025700C2A58F80D2A7B2
:09025D00007F027EC7DEFEDFFC1B
:010266002275
:0A027300C2A6120257C2A702025DE4
:1001DC00CFCDCFCECCCE1200427C007D0A12004295
:0401EC00ED2430FFCF
:0A01F000D2A6120257C2A702025D58
:10021700AE07BE0104ED148006BE0209ED243F447B
:0602270080FF12027322A9
:100243007F381202737F0C1202737F061202737FD0
:04025300010202732F
:0A027D00AC03120217AF040201F0F7
:0601B9008B0A8A0B890C81
:1001BF00120217E4FDAB0AAA0BA90C8D82758300FE
:0C01CF00120003FF60061201F00D80E931
:0101DB002201
:0C0186007F0AEA24FFFDE434FFFC7E0049
:080192008E0F8F108C118D12ED
:10019A007F017E00E4FBEBC39512E5116480F874DD
:0E01AA008098500AAC0FAD101200300B80E8A8
:0101B8002224
:0401FA008A0C8B0DD3
:1001FE00120217AA0EEAD39400400D120186AC0C1F
:08020E00AD0D1201DC1A80EDB8
:0102160022C5
:1000DB00120217C3EA64809480400B7F2B1201F04D
:1000EB008A188B19800E7F2D1201F0C3E49BF51932
:1000FB00E49AF518AA17EAD39400400D120186ACC6
:09010B0018AD191201DC1A80ED97
:0101140022C8
:040115008A1C8B1D98
:10011900120217AA1EEAD3940040297F10120188FF
:10012900AC1CAD1DCFCDCFCECCCE120042EF540FBB
:10013900FEC3940AEE5004243080022437FF1201D2
:04014900F01A80D157
:01014D00228F
:04014E008A218B2255
:10015200120217AA23EAD394004028EA24FFFDE4FE
:1001620034FFFC7F027E00120192AC21AD22CFCD82
:10017200CFCECCCE120042EF54012430FF1201F058
:030182001A80D20E
:010185002257
:0A0287005A6569204E69204D6100A0
:10009700E4F508F5091202437BFF7A0279877D01AF
:1000A7007F021201B9750E03AB09AA087D017F0112
:1000B7001201FA0509E509700205087FF47E0112AD
:1000C700022DD3E509943CE508940040D8E4F508EF
:0400D700F50980D1D6
:10022D00EF1FAC0670011E4C600B007D027CC7DC1D
:05023D00FEDDFC80EB7A
:010242002299
:0300000002026792
:0C026700787FE4F6D8FD75812302009733
:10000300BB010CE58229F582E5833AF583E02250B2
:1000130006E92582F8E622BBFE06E92582F8E222FC
:0D002300E58229F582E5833AF583E4932216
:10003000EF8DF0A4A8F0CF8CF0A428CE8DF0A42EE4
:02004000FE229E
:10004200BC000BBE0029EF8DF084FFADF022E4CCA2
:10005200F875F008EF2FFFEE33FEEC33FCEE9DEC6B
:10006200984005FCEE9DFE0FD5F0E9E4CEFD22EDB1
:10007200F8F5F0EE8420D21CFEADF075F008EF2FFB
:10008200FFED33FD4007985006D5F0F222C398FDEC
:050092000FD5F0EA2289
:00000001FF
