:0B0345004D41545249585F4B45590090
:100263001203157BFF7A0379457D017F0112028B0F
:100273001200038F22E52260F7FB7A00750C027DE2
:08028300017F021202CC80E8A9
:1002E900EF1FAC0670011E4C600B007D027CC7DC61
:0502F900FEDDFC80EBBE
:0102FE0022DD
:06032900C2A58F80D2A7DF
:09032F00007F027EC7DEFEDFFC48
:0103380022A2
:0A035000C2A6120329C2A702032F60
:1002AE00CFCDCFCECCCE1201307C007D0A120130E4
:0402BE00ED2430FFFC
:0A02C200D2A6120329C2A702032FDF
:1002FF00AE07BE0104ED148006BE0209ED243F4493
:06030F0080FF12035022E2
:100315007F381203507F0C1203507F061203507F63
:04032500010203507E
:0A035A00AC031202FFAF040202C25E
:06028B008B088A09890AB4
:100291001202FFE4FDAB08AA09A90A8D8275830049
:0C02A1001200F1FF60061202C20D80E99D
:0102AD00222E
:0C0230007F0AEA24FFFDE434FFFC7E009E
:08023C008E0D8F0E8C0F8D104A
:100244007F017E00E4FBEBC39510E50F6480F87436
:0E0254008098500AAC0DAD0E12011E0B80E812
:010262002279
:0402CC008A0A8B0B04
:1002D0001202FFAA0CEAD39400400D120230AC0ABD
:0802E000AD0B1202AE1A80ED15
:0102E80022F3
:100185001202FFC3EA64809480400B7F2B1202C2E7
:100195008A168B17800E7F2D1202C2C3E49BF517BA
:1001A500E49AF516AA15EAD39400400D120230AC74
:0901B50016AD171202AE1A80ED1E
:0101BE00221E
:0401BF008A1A8B1BF2
:1001C3001202FFAA1CEAD3940040297F10120232C4
:1001D300AC1AAD1BCFCDCFCECCCE120130EF540F26
:1001E300FEC3940AEE5004243080022437FF120227
:0401F300C21A80D1DB
:0101F70022E5
:0401F8008A1F8B20AF
:1001FC001202FFAA21EAD394004028EA24FFFDE46E
:10020C0034FFFC7F027E0012023CAC1FAD20CFCD30
:10021C00CFCECCCE120130EF54012430FF1202C2EB
:03022C001A80D263
:01022F0022AC
:10000300E4F5087590F7E59064F7602C7F0A7E00AD
:100013001202E9AF90EF2449601124E0601224F04A
:10002300601324707012750801800D75080580082F
:10003300750809800375080DE590B4F7FB7590FB0F
:10004300E59064FB602C7F0A7E001202E9AF90EF1B
:100053002445601124E0601224F0601324707012B0
:10006300750802800D750806800875080A800375F7
:10007300080EE590B4FBFB7590FDE59064FD602CE4
:100083007F0A7E001202E9AF90EF2443601124E05F
:10009300601224F0601324707012750803800D75CC
:1000A3000807800875080B800375080FE590B4FDF9
:1000B300FB7590FEE59064FE602C7F0A7E001202C1
:1000C300E9AF90EF2442601124E0601224F0601342
:1000D30024707012750804800D750808800875086F
:0D00E3000C8003750810E590B4FEFBAF081B
:0100F00022ED
:03000000020339BF
:0C033900787FE4F6D8FD75812202026393
:1000F100BB010CE58229F582E5833AF583E02250C4
:1001010006E92582F8E622BBFE06E92582F8E2220D
:0D011100E58229F582E5833AF583E4932227
:10011E00EF8DF0A4A8F0CF8CF0A428CE8DF0A42EF5
:02012E00FE22AF
:10013000BC000BBE0029EF8DF084FFADF022E4CCB3
:10014000F875F008EF2FFFEE33FEEC33FCEE9DEC7C
:10015000984005FCEE9DFE0FD5F0E9E4CEFD22EDC2
:10016000F8F5F0EE8420D21CFEADF075F008EF2F0C
:10017000FFED33FD4007985006D5F0F222C398FDFD
:050180000FD5F0EA229A
:00000001FF
