:1002C500EF1FAC0670011E4C600B007D027CC7DC85
:0502D500FEDDFC80EBE2
:0102DA002201
:06030500C2A58F80D2A703
:09030B00007F027EC7DEFEDFFC6C
:0103140022C6
:0A032100C2A6120305C2A702030BD7
:10025500CFCDCFCECCCE12004D7C007D0A12004D05
:04026500ED2430FF55
:0A026900D2A6120305C2A702030B80
:1002DB00AE07BE0104ED148006BE0209ED243F44B7
:0602EB0080FF1203212236
:1002F1007F381203217F0C1203217F061203217F15
:0403010001020321D1
:0A032B00AC031202DBAF040202690A
:060232008B268A278928B3
:100238001202DBE4FDAB26AA27A9288D827583006C
:0C02480012000EFF60061202690D80E932
:010254002287
:0C01FF007F0AEA24FFFDE434FFFC7E00D0
:08020B008E1E8F1F8C208D2137
:100213007F017E00E4FBEBC39521E5206480F87445
:0E0223008098500AAC1EAD1F12003B0B80E805
:0102310022AA
:040291008A118B1231
:100295001202DBAA13EAD39400400D1201FFAC1140
:0802A500AD121202551A80EDA2
:0102AD00222E
:100154001202DBC3EA64809480400B7F2B12026995
:100164008A0D8B0E800E7F2D120269C3E49BF50E5F
:10017400E49AF50DAA0CEAD39400400D1201FFACE9
:090184000DAD0E1202551A80EDBA
:01018D00224F
:04018E008A168B172B
:100192001202DBAA18EAD3940040297F101202014E
:1001A200AC16AD17CFCDCFCECCCE12004DEF540F43
:1001B200FEC3940AEE5004243080022437FF120258
:0401C200691A80D165
:0101C6002216
:0401C7008A1B8B1CE8
:1001CB001202DBAA1DEAD394004028EA24FFFDE4C7
:1001DB0034FFFC7F027E0012020BAC1BAD1CCFCD9B
:1001EB00CFCECCCE12004DEF54012430FF1202695A
:0301FB001A80D295
:0101FE0022DE
:100273001202AE75A0FE1200A28F25E525B401F689
:0E0283000524E524C3940240EDE4F52480E850
:03000B00020103EC
:0B010300C0E0C0D075D000C000C007F5
:10010E00758A66758CFC0523E52370020522C3945F
:10011E00F4E52294014026752200752300E5247033
:10012E000FAFA07801EF08800123D8FDF5A0800D58
:0D013E00AFA07801EF08800103D8FDF5A007
:09014B00D007D000D0D0D0E03282
:1002AE005389F0438901758A66758CFCC28DD28C98
:0702BE00D2A9D2AFC2B922A0
:1000A200E4F52920B1137F14FE1202C530B1FD7FA1
:1000B200147E001202C575290120B0147F147E003F
:1000C2001202C530B0FD7F147E001202C5752902EE
:1000D20020B2147F147E001202C530B2FD7F147E5E
:1000E200001202C575290320B3147F147E00120288
:1000F200C530B3FD7F147E001202C5752904AF29F5
:0101020022DA
:03000000020315E3
:0C031500787FE4F6D8FD758129020273A0
:10000E00BB010CE58229F582E5833AF583E02250A7
:10001E0006E92582F8E622BBFE06E92582F8E222F1
:0D002E00E58229F582E5833AF583E493220B
:10003B00EF8DF0A4A8F0CF8CF0A428CE8DF0A42ED9
:02004B00FE2293
:10004D00BC000BBE0029EF8DF084FFADF022E4CC97
:10005D00F875F008EF2FFFEE33FEEC33FCEE9DEC60
:10006D00984005FCEE9DFE0FD5F0E9E4CEFD22EDA6
:10007D00F8F5F0EE8420D21CFEADF075F008EF2FF0
:10008D00FFED33FD4007985006D5F0F222C398FDE1
:05009D000FD5F0EA227E
:00000001FF
