:08008D0075A0FF12000380FEC4
:03002300020026B2
:10002600C0E0C0F0C083C082C0D075D000C000C0A0
:1000360001C002C003C004C005C006C00730980A4C
:100046008599A0C298AF99120095D007D006D00521
:10005600D004D003D002D001D000D0D0D082D0833B
:05006600D0F0D0E032F3
:10006B00EF1FAC0670011E4C600B007D027CC7DCE1
:05007B00FEDDFC80EB3E
:01008000225D
:1000030053877F75985053890F438920758BFA75F1
:0B0013008DFAC2ABD28ED2AFD2AC226D
:080095008F993099FDC29922F8
:030000000200817A
:0C008100787FE4F6D8FD75810702008D41
:00000001FF
